{
  "address": "0xA41447e3F905F2525E7A6F0597dC94a411199B7b",
  "abi": [
    {
      "inputs": [
        {
          "internalType": "address",
          "name": "_owner",
          "type": "address"
        },
        {
          "internalType": "string",
          "name": "_name",
          "type": "string"
        },
        {
          "internalType": "string",
          "name": "_symbol",
          "type": "string"
        },
        {
          "internalType": "contract IERC20",
          "name": "_token",
          "type": "address"
        },
        {
          "internalType": "uint256",
          "name": "_firstLockSeconds",
          "type": "uint256"
        },
        {
          "internalType": "uint256",
          "name": "_lockPeriod",
          "type": "uint256"
        },
        {
          "internalType": "uint256",
          "name": "_lockPeriodNum",
          "type": "uint256"
        }
      ],
      "stateMutability": "nonpayable",
      "type": "constructor"
    },
    {
      "anonymous": false,
      "inputs": [
        {
          "indexed": true,
          "internalType": "address",
          "name": "owner",
          "type": "address"
        },
        {
          "indexed": true,
          "internalType": "address",
          "name": "spender",
          "type": "address"
        },
        {
          "indexed": false,
          "internalType": "uint256",
          "name": "value",
          "type": "uint256"
        }
      ],
      "name": "Approval",
      "type": "event"
    },
    {
      "anonymous": false,
      "inputs": [
        {
          "indexed": true,
          "internalType": "address",
          "name": "previousPendingOwner",
          "type": "address"
        },
        {
          "indexed": true,
          "internalType": "address",
          "name": "newPendingOwner",
          "type": "address"
        }
      ],
      "name": "ChangePendingOwner",
      "type": "event"
    },
    {
      "anonymous": false,
      "inputs": [
        {
          "indexed": true,
          "internalType": "address",
          "name": "receiver",
          "type": "address"
        },
        {
          "indexed": false,
          "internalType": "uint256",
          "name": "amount",
          "type": "uint256"
        }
      ],
      "name": "Claim",
      "type": "event"
    },
    {
      "anonymous": false,
      "inputs": [
        {
          "indexed": true,
          "internalType": "address",
          "name": "receiver",
          "type": "address"
        },
        {
          "indexed": false,
          "internalType": "uint256",
          "name": "sendAmount",
          "type": "uint256"
        },
        {
          "indexed": false,
          "internalType": "uint256",
          "name": "totalReleaseAmount",
          "type": "uint256"
        },
        {
          "indexed": false,
          "internalType": "uint256",
          "name": "lastReleaseAt",
          "type": "uint256"
        }
      ],
      "name": "NewReceiver",
      "type": "event"
    },
    {
      "anonymous": false,
      "inputs": [
        {
          "indexed": true,
          "internalType": "address",
          "name": "previousOwner",
          "type": "address"
        },
        {
          "indexed": true,
          "internalType": "address",
          "name": "newOwner",
          "type": "address"
        }
      ],
      "name": "OwnershipTransferred",
      "type": "event"
    },
    {
      "anonymous": false,
      "inputs": [
        {
          "indexed": true,
          "internalType": "address",
          "name": "receiver",
          "type": "address"
        },
        {
          "indexed": false,
          "internalType": "uint256",
          "name": "releaseAmount",
          "type": "uint256"
        },
        {
          "indexed": false,
          "internalType": "uint256",
          "name": "nextReleaseAmount",
          "type": "uint256"
        },
        {
          "indexed": false,
          "internalType": "uint256",
          "name": "nextReleaseBlockNum",
          "type": "uint256"
        }
      ],
      "name": "ReleaseToken",
      "type": "event"
    },
    {
      "anonymous": false,
      "inputs": [
        {
          "indexed": true,
          "internalType": "address",
          "name": "from",
          "type": "address"
        },
        {
          "indexed": true,
          "internalType": "address",
          "name": "to",
          "type": "address"
        },
        {
          "indexed": false,
          "internalType": "uint256",
          "name": "value",
          "type": "uint256"
        }
      ],
      "name": "Transfer",
      "type": "event"
    },
    {
      "inputs": [],
      "name": "FIRST_LOCK_SECONDS",
      "outputs": [
        {
          "internalType": "uint256",
          "name": "",
          "type": "uint256"
        }
      ],
      "stateMutability": "view",
      "type": "function"
    },
    {
      "inputs": [],
      "name": "LOCK_PERIOD",
      "outputs": [
        {
          "internalType": "uint256",
          "name": "",
          "type": "uint256"
        }
      ],
      "stateMutability": "view",
      "type": "function"
    },
    {
      "inputs": [],
      "name": "LOCK_PERIOD_NUM",
      "outputs": [
        {
          "internalType": "uint256",
          "name": "",
          "type": "uint256"
        }
      ],
      "stateMutability": "view",
      "type": "function"
    },
    {
      "inputs": [],
      "name": "MAX_CLAIM_NUM",
      "outputs": [
        {
          "internalType": "uint256",
          "name": "",
          "type": "uint256"
        }
      ],
      "stateMutability": "view",
      "type": "function"
    },
    {
      "inputs": [],
      "name": "acceptOwner",
      "outputs": [],
      "stateMutability": "nonpayable",
      "type": "function"
    },
    {
      "inputs": [
        {
          "internalType": "address",
          "name": "_receiver",
          "type": "address"
        },
        {
          "internalType": "uint256",
          "name": "_amount",
          "type": "uint256"
        }
      ],
      "name": "addReceiver",
      "outputs": [],
      "stateMutability": "nonpayable",
      "type": "function"
    },
    {
      "inputs": [
        {
          "internalType": "address",
          "name": "owner",
          "type": "address"
        },
        {
          "internalType": "address",
          "name": "spender",
          "type": "address"
        }
      ],
      "name": "allowance",
      "outputs": [
        {
          "internalType": "uint256",
          "name": "",
          "type": "uint256"
        }
      ],
      "stateMutability": "view",
      "type": "function"
    },
    {
      "inputs": [
        {
          "internalType": "address",
          "name": "spender",
          "type": "address"
        },
        {
          "internalType": "uint256",
          "name": "amount",
          "type": "uint256"
        }
      ],
      "name": "approve",
      "outputs": [
        {
          "internalType": "bool",
          "name": "",
          "type": "bool"
        }
      ],
      "stateMutability": "nonpayable",
      "type": "function"
    },
    {
      "inputs": [
        {
          "internalType": "address",
          "name": "account",
          "type": "address"
        }
      ],
      "name": "balanceOf",
      "outputs": [
        {
          "internalType": "uint256",
          "name": "",
          "type": "uint256"
        }
      ],
      "stateMutability": "view",
      "type": "function"
    },
    {
      "inputs": [
        {
          "internalType": "address",
          "name": "_receiver",
          "type": "address"
        }
      ],
      "name": "claim",
      "outputs": [],
      "stateMutability": "nonpayable",
      "type": "function"
    },
    {
      "inputs": [],
      "name": "decimals",
      "outputs": [
        {
          "internalType": "uint8",
          "name": "",
          "type": "uint8"
        }
      ],
      "stateMutability": "view",
      "type": "function"
    },
    {
      "inputs": [
        {
          "internalType": "address",
          "name": "spender",
          "type": "address"
        },
        {
          "internalType": "uint256",
          "name": "subtractedValue",
          "type": "uint256"
        }
      ],
      "name": "decreaseAllowance",
      "outputs": [
        {
          "internalType": "bool",
          "name": "",
          "type": "bool"
        }
      ],
      "stateMutability": "nonpayable",
      "type": "function"
    },
    {
      "inputs": [
        {
          "internalType": "address",
          "name": "_receiver",
          "type": "address"
        }
      ],
      "name": "getReleaseInfo",
      "outputs": [
        {
          "internalType": "uint256",
          "name": "nextReleaseAt",
          "type": "uint256"
        },
        {
          "internalType": "uint256",
          "name": "nextReleaseAmount",
          "type": "uint256"
        },
        {
          "internalType": "uint256",
          "name": "alreadyReleaseAmount",
          "type": "uint256"
        },
        {
          "internalType": "uint256",
          "name": "remainReleaseAmount",
          "type": "uint256"
        }
      ],
      "stateMutability": "view",
      "type": "function"
    },
    {
      "inputs": [
        {
          "internalType": "address",
          "name": "spender",
          "type": "address"
        },
        {
          "internalType": "uint256",
          "name": "addedValue",
          "type": "uint256"
        }
      ],
      "name": "increaseAllowance",
      "outputs": [
        {
          "internalType": "bool",
          "name": "",
          "type": "bool"
        }
      ],
      "stateMutability": "nonpayable",
      "type": "function"
    },
    {
      "inputs": [],
      "name": "name",
      "outputs": [
        {
          "internalType": "string",
          "name": "",
          "type": "string"
        }
      ],
      "stateMutability": "view",
      "type": "function"
    },
    {
      "inputs": [],
      "name": "owner",
      "outputs": [
        {
          "internalType": "address",
          "name": "",
          "type": "address"
        }
      ],
      "stateMutability": "view",
      "type": "function"
    },
    {
      "inputs": [
        {
          "internalType": "address",
          "name": "_receiver",
          "type": "address"
        }
      ],
      "name": "pending",
      "outputs": [
        {
          "internalType": "uint256",
          "name": "",
          "type": "uint256"
        },
        {
          "internalType": "uint256",
          "name": "",
          "type": "uint256"
        },
        {
          "internalType": "uint256",
          "name": "",
          "type": "uint256"
        }
      ],
      "stateMutability": "view",
      "type": "function"
    },
    {
      "inputs": [],
      "name": "pendingOwner",
      "outputs": [
        {
          "internalType": "address",
          "name": "",
          "type": "address"
        }
      ],
      "stateMutability": "view",
      "type": "function"
    },
    {
      "inputs": [
        {
          "internalType": "address",
          "name": "",
          "type": "address"
        }
      ],
      "name": "receivers",
      "outputs": [
        {
          "internalType": "address",
          "name": "receiver",
          "type": "address"
        },
        {
          "internalType": "uint256",
          "name": "totalReleaseAmount",
          "type": "uint256"
        },
        {
          "internalType": "bool",
          "name": "firstUnlock",
          "type": "bool"
        },
        {
          "internalType": "uint256",
          "name": "lastReleaseAt",
          "type": "uint256"
        },
        {
          "internalType": "uint256",
          "name": "alreadyReleasedAmount",
          "type": "uint256"
        }
      ],
      "stateMutability": "view",
      "type": "function"
    },
    {
      "inputs": [],
      "name": "renounceOwnership",
      "outputs": [],
      "stateMutability": "nonpayable",
      "type": "function"
    },
    {
      "inputs": [
        {
          "internalType": "address",
          "name": "pendingOwner_",
          "type": "address"
        }
      ],
      "name": "setPendingOwner",
      "outputs": [],
      "stateMutability": "nonpayable",
      "type": "function"
    },
    {
      "inputs": [],
      "name": "symbol",
      "outputs": [
        {
          "internalType": "string",
          "name": "",
          "type": "string"
        }
      ],
      "stateMutability": "view",
      "type": "function"
    },
    {
      "inputs": [],
      "name": "token",
      "outputs": [
        {
          "internalType": "contract IERC20",
          "name": "",
          "type": "address"
        }
      ],
      "stateMutability": "view",
      "type": "function"
    },
    {
      "inputs": [],
      "name": "totalLockAmount",
      "outputs": [
        {
          "internalType": "uint256",
          "name": "",
          "type": "uint256"
        }
      ],
      "stateMutability": "view",
      "type": "function"
    },
    {
      "inputs": [],
      "name": "totalSupply",
      "outputs": [
        {
          "internalType": "uint256",
          "name": "",
          "type": "uint256"
        }
      ],
      "stateMutability": "view",
      "type": "function"
    },
    {
      "inputs": [
        {
          "internalType": "address",
          "name": "recipient",
          "type": "address"
        },
        {
          "internalType": "uint256",
          "name": "amount",
          "type": "uint256"
        }
      ],
      "name": "transfer",
      "outputs": [
        {
          "internalType": "bool",
          "name": "",
          "type": "bool"
        }
      ],
      "stateMutability": "nonpayable",
      "type": "function"
    },
    {
      "inputs": [
        {
          "internalType": "address",
          "name": "sender",
          "type": "address"
        },
        {
          "internalType": "address",
          "name": "recipient",
          "type": "address"
        },
        {
          "internalType": "uint256",
          "name": "amount",
          "type": "uint256"
        }
      ],
      "name": "transferFrom",
      "outputs": [
        {
          "internalType": "bool",
          "name": "",
          "type": "bool"
        }
      ],
      "stateMutability": "nonpayable",
      "type": "function"
    },
    {
      "inputs": [
        {
          "internalType": "address",
          "name": "",
          "type": "address"
        }
      ],
      "name": "userPending",
      "outputs": [
        {
          "internalType": "uint256",
          "name": "",
          "type": "uint256"
        }
      ],
      "stateMutability": "view",
      "type": "function"
    }
  ],
  "transactionHash": "0x82cb316194b9f9cf2e58dbbac3047a1413e1e27cd17de610df46f4c2a8499abe",
  "args": [
    "0x218e59Feb135A21F8BA26A6F5F6A3C7868a3ab31",
    "Lock TokenLocker",
    "EAthena",
    "0x0B5ba56d44d958C6E2dD613b0e38E93Dec4Bc98e",
    0,
    300,
    24
  ],
  "solcInputHash": "790cd55fe47189e24489881ed9499d92",
  "bytecode": "0x6101006040523480156200001257600080fd5b506040516200259438038062002594833981810160405260e08110156200003857600080fd5b8151602083018051604051929492938301929190846401000000008211156200006057600080fd5b9083019060208201858111156200007657600080fd5b82516401000000008111828201881017156200009157600080fd5b82525081516020918201929091019080838360005b83811015620000c0578181015183820152602001620000a6565b50505050905090810190601f168015620000ee5780820380516001836020036101000a031916815260200191505b50604052602001805160405193929190846401000000008211156200011257600080fd5b9083019060208201858111156200012857600080fd5b82516401000000008111828201881017156200014357600080fd5b82525081516020918201929091019080838360005b838110156200017257818101518382015260200162000158565b50505050905090810190601f168015620001a05780820380516001836020036101000a031916815260200191505b506040908152602082810151918301516060840151608090940151885193965090945091889188918891620001db91600391850190620002f8565b508051620001f1906004906020840190620002f8565b50506005805460ff19166012179055506001600160a01b0381166200021d576200021a620002f4565b90505b60058054610100600160a81b0319166101006001600160a01b038416908102919091179091556040516000907f8be0079c531659141344cd1fd0a4f28419497f9722a3daafe3b4186f6b6457e0908290a3506001600160a01b038416620002cb576040805162461bcd60e51b815260206004820152601560248201527f746f6b656e2061646472657373206973207a65726f0000000000000000000000604482015290519081900360640190fd5b60609390931b6001600160601b03191660e05260809190915260a05260c05250620003a4915050565b3390565b828054600181600116156101000203166002900490600052602060002090601f0160209004810192826200033057600085556200037b565b82601f106200034b57805160ff19168380011785556200037b565b828001600101855582156200037b579182015b828111156200037b5782518255916020019190600101906200035e565b50620003899291506200038d565b5090565b5b808211156200038957600081556001016200038e565b60805160a05160c05160e05160601c612180620004146000398061075e5280610bb55280610c5b5280610c8952806114dc5250806108bc52806109995280610dd35280610fd35250806106c352806109605280610fa05250806109325280610f72528061116652506121806000f3fe608060405234801561001057600080fd5b50600436106101c45760003560e01c806370a08231116100f9578063a9059cbb11610097578063e30c397811610071578063e30c3978146105ab578063e959fa04146105b3578063ebbc4965146105bb578063fc0c546a146105c3576101c4565b8063a9059cbb1461052b578063c42069ec14610557578063dd62ed3e1461057d576101c4565b80638da5cb5b116100d35780638da5cb5b146104cb57806395d89b41146104ef578063a111bab9146104f7578063a457c2d7146104ff576101c4565b806370a0823114610495578063715018a6146104bb5780638ace124d146104c3576101c4565b8063313ce56711610166578063502ad4ce11610140578063502ad4ce146103d15780635eebea20146103d95780635f3ccdd91461041d578063684c261114610449576101c4565b8063313ce56714610361578063395093511461037f578063414c4695146103ab576101c4565b806318160ddd116101a257806318160ddd146102e15780631820cabb146102fb5780631e83409a1461030357806323b872dd1461032b576101c4565b806306fdde03146101c9578063095ea7b3146102465780630cb8150f14610286575b600080fd5b6101d16105cb565b6040805160208082528351818301528351919283929083019185019080838360005b8381101561020b5781810151838201526020016101f3565b50505050905090810190601f1680156102385780820380516001836020036101000a031916815260200191505b509250505060405180910390f35b6102726004803603604081101561025c57600080fd5b506001600160a01b038135169060200135610661565b604080519115158252519081900360200190f35b6102ac6004803603602081101561029c57600080fd5b50356001600160a01b031661067e565b604080516001600160a01b03909616865260208601949094529115158484015260608401526080830152519081900360a00190f35b6102e96106bb565b60408051918252519081900360200190f35b6102e96106c1565b6103296004803603602081101561031957600080fd5b50356001600160a01b03166106e5565b005b6102726004803603606081101561034157600080fd5b506001600160a01b038135811691602081013590911690604001356107c9565b610369610851565b6040805160ff9092168252519081900360200190f35b6102726004803603604081101561039557600080fd5b506001600160a01b03813516906020013561085a565b6102e9600480360360208110156103c157600080fd5b50356001600160a01b03166108a8565b6102e96108ba565b6103ff600480360360208110156103ef57600080fd5b50356001600160a01b03166108de565b60408051938452602084019290925282820152519081900360600190f35b6103296004803603604081101561043357600080fd5b506001600160a01b038135169060200135610a6d565b61046f6004803603602081101561045f57600080fd5b50356001600160a01b0316610ed5565b604080519485526020850193909352838301919091526060830152519081900360800190f35b6102e9600480360360208110156104ab57600080fd5b50356001600160a01b0316611027565b610329611046565b6102e9611164565b6104d3611188565b604080516001600160a01b039092168252519081900360200190f35b6101d161119c565b6102e96111fd565b6102726004803603604081101561051557600080fd5b506001600160a01b038135169060200135611203565b6102726004803603604081101561054157600080fd5b506001600160a01b03813516906020013561126b565b6103296004803603602081101561056d57600080fd5b50356001600160a01b031661127f565b6102e96004803603604081101561059357600080fd5b506001600160a01b0381358116916020013516611394565b6104d36113bf565b6102e96113ce565b6103296113d3565b6104d36114da565b60038054604080516020601f60026000196101006001881615020190951694909404938401819004810282018101909252828152606093909290918301828280156106575780601f1061062c57610100808354040283529160200191610657565b820191906000526020600020905b81548152906001019060200180831161063a57829003601f168201915b5050505050905090565b600061067561066e6114fe565b8484611502565b50600192915050565b600860205260009081526040902080546001820154600283015460038401546004909401546001600160a01b0390931693919260ff909116919085565b60025490565b7f000000000000000000000000000000000000000000000000000000000000000081565b60005b606481101561070b576106fa826115ee565b6107035761070b565b6001016106e8565b506001600160a01b038116600090815260096020526040902054156107c6576001600160a01b038116600090815260096020526040812080549190556107518282611724565b6107856001600160a01b037f0000000000000000000000000000000000000000000000000000000000000000168383611820565b6040805182815290516001600160a01b038416917f47cee97cb7acd717b3c0aa1435d004cd5b3c8c57d70dbceb4e4458bbd60e39d4919081900360200190a2505b50565b60006107d6848484611877565b610846846107e26114fe565b6108418560405180606001604052806028815260200161201a602891396001600160a01b038a166000908152600160205260408120906108206114fe565b6001600160a01b0316815260208101919091526040016000205491906119d2565b611502565b5060015b9392505050565b60055460ff1690565b60006106756108676114fe565b8461084185600160006108786114fe565b6001600160a01b03908116825260208083019390935260409182016000908120918c168152925290205490611a69565b60096020526000908152604090205481565b7f000000000000000000000000000000000000000000000000000000000000000081565b6001600160a01b03808216600081815260086020526040812080549193849384939091161461091857600080600093509350935050610a66565b6003810154600282015442919060ff1660005b8161095e577f00000000000000000000000000000000000000000000000000000000000000008301925060019150610984565b7f0000000000000000000000000000000000000000000000000000000000000000830192505b828410610a0c5760018501546000906109bd907f0000000000000000000000000000000000000000000000000000000000000000611ac3565b90506109c98183611a69565b600487015460018801546109dc91611b2a565b11156109eb5790810190610a06565b600486015460018701546109fe91611b2a565b915050610a16565b50610a11565b610a16565b61092b565b6000610a3d82610a3788600401548960010154611b2a90919063ffffffff16565b90611b2a565b6001600160a01b038b166000908152600960205260409020549499509190930196509450505050505b9193909250565b610a756114fe565b6001600160a01b0316610a86611188565b6001600160a01b031614610ae1576040805162461bcd60e51b815260206004820181905260248201527f4f776e61626c653a2063616c6c6572206973206e6f7420746865206f776e6572604482015290519081900360640190fd5b60005b6064811015610b0757610af6836115ee565b610aff57610b07565b600101610ae4565b506001600160a01b038216610b63576040805162461bcd60e51b815260206004820152601860248201527f72656365697665722061646472657373206973207a65726f0000000000000000604482015290519081900360640190fd5b60008111610bb1576040805162461bcd60e51b815260206004820152601660248201527572656c6561736520616d6f756e74206973207a65726f60501b604482015290519081900360640190fd5b60007f00000000000000000000000000000000000000000000000000000000000000006001600160a01b03166370a08231306040518263ffffffff1660e01b815260040180826001600160a01b0316815260200191505060206040518083038186803b158015610c2057600080fd5b505afa158015610c34573d6000803e3d6000fd5b505050506040513d6020811015610c4a57600080fd5b50519050610c836001600160a01b037f000000000000000000000000000000000000000000000000000000000000000016333085611b87565b610d26817f00000000000000000000000000000000000000000000000000000000000000006001600160a01b03166370a08231306040518263ffffffff1660e01b815260040180826001600160a01b0316815260200191505060206040518083038186803b158015610cf457600080fd5b505afa158015610d08573d6000803e3d6000fd5b505050506040513d6020811015610d1e57600080fd5b505190611b2a565b9150610d328383611be7565b600754610d3f9083611a69565b6007556001600160a01b03808416600090815260086020526040812080549192909116610dcb57610d8b84610d8583600401548460010154611b2a90919063ffffffff16565b90611a69565b81546001600160a01b0319166001600160a01b0387161782556001820181905560028201805460ff19169055426003830155600060048301559150610e7d565b6000610df7857f0000000000000000000000000000000000000000000000000000000000000000611ac3565b6001600160a01b038716600090815260096020526040902054909150610e1d9082611a69565b6001600160a01b038716600090815260096020526040812091909155610e438683611b2a565b9050610e6481610d8585600401548660010154611b2a90919063ffffffff16565b6001840181905542600385015560006004850155935050505b6003810154604080518681526020810185905280820192909252516001600160a01b038716917f3884827fc54f3ca6180152f3435804a27e17c9a82a5f7de1655691126ece311a919081900360600190a25050505050565b6001600160a01b0381166000818152600860205260408120909182918291829190610f3c576040805162461bcd60e51b81526020600482015260126024820152711c9958d95a5d995c881b9bdd08195e1a5cdd60721b604482015290519081900360640190fd5b80546001600160a01b03878116911614610f6457600080600080945094509450945050611020565b600281015460ff16610f9e577f00000000000000000000000000000000000000000000000000000000000000008160030154019450610fc8565b7f000000000000000000000000000000000000000000000000000000000000000081600301540194505b6001810154610ff7907f0000000000000000000000000000000000000000000000000000000000000000611ac3565b6004820154600183015491955093506110109084611b2a565b91508184111561101e578193505b505b9193509193565b6001600160a01b0381166000908152602081905260409020545b919050565b61104e6114fe565b6001600160a01b031661105f611188565b6001600160a01b0316146110ba576040805162461bcd60e51b815260206004820181905260248201527f4f776e61626c653a2063616c6c6572206973206e6f7420746865206f776e6572604482015290519081900360640190fd5b60055460405160009161010090046001600160a01b0316907f8be0079c531659141344cd1fd0a4f28419497f9722a3daafe3b4186f6b6457e0908390a360058054610100600160a81b03191690556006546001600160a01b031615611162576006546040516000916001600160a01b0316907f4465959e7ec1f32e3ebd831ac2459ad6ef4b1d54a83f108a7068e69e62f0702f908390a3600680546001600160a01b03191690555b565b7f000000000000000000000000000000000000000000000000000000000000000081565b60055461010090046001600160a01b031690565b60048054604080516020601f60026000196101006001881615020190951694909404938401819004810282018101909252828152606093909290918301828280156106575780601f1061062c57610100808354040283529160200191610657565b60075481565b60006106756112106114fe565b8461084185604051806060016040528060258152602001612126602591396001600061123a6114fe565b6001600160a01b03908116825260208083019390935260409182016000908120918d168152925290205491906119d2565b60006106756112786114fe565b8484611877565b6112876114fe565b6001600160a01b0316611298611188565b6001600160a01b0316146112f3576040805162461bcd60e51b815260206004820181905260248201527f4f776e61626c653a2063616c6c6572206973206e6f7420746865206f776e6572604482015290519081900360640190fd5b6001600160a01b0381166113385760405162461bcd60e51b81526004018080602001828103825260298152602001806120fd6029913960400191505060405180910390fd5b6006546040516001600160a01b038084169216907f4465959e7ec1f32e3ebd831ac2459ad6ef4b1d54a83f108a7068e69e62f0702f90600090a3600680546001600160a01b0319166001600160a01b0392909216919091179055565b6001600160a01b03918216600090815260016020908152604080832093909416825291909152205490565b6006546001600160a01b031690565b606481565b6113db6114fe565b6001600160a01b03166113ec6113bf565b6001600160a01b0316146114315760405162461bcd60e51b81526004018080602001828103825260278152602001806120886027913960400191505060405180910390fd5b6006546005546040516001600160a01b0392831692610100909204909116907f8be0079c531659141344cd1fd0a4f28419497f9722a3daafe3b4186f6b6457e090600090a360065460058054610100600160a81b0319166101006001600160a01b03909316928302179055604051600091907f4465959e7ec1f32e3ebd831ac2459ad6ef4b1d54a83f108a7068e69e62f0702f908390a3600680546001600160a01b0319169055565b7f000000000000000000000000000000000000000000000000000000000000000081565b3390565b6001600160a01b0383166115475760405162461bcd60e51b81526004018080602001828103825260248152602001806120af6024913960400191505060405180910390fd5b6001600160a01b03821661158c5760405162461bcd60e51b8152600401808060200182810382526022815260200180611fac6022913960400191505060405180910390fd5b6001600160a01b03808416600081815260016020908152604080832094871680845294825291829020859055815185815291517f8c5be1e5ebec7d5bd14f71427d1e84f3dd0314c0f7b2291e5b200ac8c7c3b9259281900390910190a3505050565b60008060006115fc84610ed5565b5050915091508142108061160e575080155b1561161e57600092505050611041565b6001600160a01b0384166000908152600860205260409020600281015460ff166116525760028101805460ff191660011790555b6003810183905560048101546116689083611a69565b600482015560075461167a9083611b2a565b6007556001600160a01b0385166000908152600960205260409020546116a09083611a69565b6001600160a01b038616600090815260096020526040812091909155806116c687610ed5565b5050604080518781526020810184905280820183905290519294509092506001600160a01b038916917fcf9133e9b53c5807f2715505c51b1db615caf0f32801f31abf2137b249a1b5899181900360600190a2509195945050505050565b6001600160a01b0382166117695760405162461bcd60e51b81526004018080602001828103825260218152602001806120426021913960400191505060405180910390fd5b61177582600083611872565b6117b281604051806060016040528060228152602001611f8a602291396001600160a01b03851660009081526020819052604090205491906119d2565b6001600160a01b0383166000908152602081905260409020556002546117d89082611b2a565b6002556040805182815290516000916001600160a01b038516917fddf252ad1be2c89b69c2b068fc378daa952ba7f163c4a11628f55a4df523b3ef9181900360200190a35050565b604080516001600160a01b038416602482015260448082018490528251808303909101815260649091019091526020810180516001600160e01b031663a9059cbb60e01b179052611872908490611cd7565b505050565b6001600160a01b0383166118bc5760405162461bcd60e51b81526004018080602001828103825260258152602001806120636025913960400191505060405180910390fd5b6001600160a01b0382166119015760405162461bcd60e51b8152600401808060200182810382526023815260200180611f676023913960400191505060405180910390fd5b61190c838383611872565b61194981604051806060016040528060268152602001611fce602691396001600160a01b03861660009081526020819052604090205491906119d2565b6001600160a01b0380851660009081526020819052604080822093909355908416815220546119789082611a69565b6001600160a01b038084166000818152602081815260409182902094909455805185815290519193928716927fddf252ad1be2c89b69c2b068fc378daa952ba7f163c4a11628f55a4df523b3ef92918290030190a3505050565b60008184841115611a615760405162461bcd60e51b81526004018080602001828103825283818151815260200191508051906020019080838360005b83811015611a26578181015183820152602001611a0e565b50505050905090810190601f168015611a535780820380516001836020036101000a031916815260200191505b509250505060405180910390fd5b505050900390565b60008282018381101561084a576040805162461bcd60e51b815260206004820152601b60248201527f536166654d6174683a206164646974696f6e206f766572666c6f770000000000604482015290519081900360640190fd5b6000808211611b19576040805162461bcd60e51b815260206004820152601a60248201527f536166654d6174683a206469766973696f6e206279207a65726f000000000000604482015290519081900360640190fd5b818381611b2257fe5b049392505050565b600082821115611b81576040805162461bcd60e51b815260206004820152601e60248201527f536166654d6174683a207375627472616374696f6e206f766572666c6f770000604482015290519081900360640190fd5b50900390565b604080516001600160a01b0380861660248301528416604482015260648082018490528251808303909101815260849091019091526020810180516001600160e01b03166323b872dd60e01b179052611be1908590611cd7565b50505050565b6001600160a01b038216611c42576040805162461bcd60e51b815260206004820152601f60248201527f45524332303a206d696e7420746f20746865207a65726f206164647265737300604482015290519081900360640190fd5b611c4e60008383611872565b600254611c5b9082611a69565b6002556001600160a01b038216600090815260208190526040902054611c819082611a69565b6001600160a01b0383166000818152602081815260408083209490945583518581529351929391927fddf252ad1be2c89b69c2b068fc378daa952ba7f163c4a11628f55a4df523b3ef9281900390910190a35050565b6000611d2c826040518060400160405280602081526020017f5361666545524332303a206c6f772d6c6576656c2063616c6c206661696c6564815250856001600160a01b0316611d889092919063ffffffff16565b80519091501561187257808060200190516020811015611d4b57600080fd5b50516118725760405162461bcd60e51b815260040180806020018281038252602a8152602001806120d3602a913960400191505060405180910390fd5b6060611d978484600085611d9f565b949350505050565b606082471015611de05760405162461bcd60e51b8152600401808060200182810382526026815260200180611ff46026913960400191505060405180910390fd5b611de985611efa565b611e3a576040805162461bcd60e51b815260206004820152601d60248201527f416464726573733a2063616c6c20746f206e6f6e2d636f6e7472616374000000604482015290519081900360640190fd5b600080866001600160a01b031685876040518082805190602001908083835b60208310611e785780518252601f199092019160209182019101611e59565b6001836020036101000a03801982511681845116808217855250505050505090500191505060006040518083038185875af1925050503d8060008114611eda576040519150601f19603f3d011682016040523d82523d6000602084013e611edf565b606091505b5091509150611eef828286611f00565b979650505050505050565b3b151590565b60608315611f0f57508161084a565b825115611f1f5782518084602001fd5b60405162461bcd60e51b8152602060048201818152845160248401528451859391928392604401919085019080838360008315611a26578181015183820152602001611a0e56fe45524332303a207472616e7366657220746f20746865207a65726f206164647265737345524332303a206275726e20616d6f756e7420657863656564732062616c616e636545524332303a20617070726f766520746f20746865207a65726f206164647265737345524332303a207472616e7366657220616d6f756e7420657863656564732062616c616e6365416464726573733a20696e73756666696369656e742062616c616e636520666f722063616c6c45524332303a207472616e7366657220616d6f756e74206578636565647320616c6c6f77616e636545524332303a206275726e2066726f6d20746865207a65726f206164647265737345524332303a207472616e736665722066726f6d20746865207a65726f20616464726573734f776e61626c653a2063616c6c6572206973206e6f74207468652070656e64696e674f776e657245524332303a20617070726f76652066726f6d20746865207a65726f20616464726573735361666545524332303a204552433230206f7065726174696f6e20646964206e6f7420737563636565644f776e61626c653a2070656e64696e674f776e657220697320746865207a65726f206164647265737345524332303a2064656372656173656420616c6c6f77616e63652062656c6f77207a65726fa26469706673582212204db42c480d6b77302ef6fda6b6be917be6edfa5d794a9d00bee03c89c891671a64736f6c63430007060033",
  "devdoc": {
    "kind": "dev",
    "methods": {
      "allowance(address,address)": {
        "details": "See {IERC20-allowance}."
      },
      "approve(address,uint256)": {
        "details": "See {IERC20-approve}. Requirements: - `spender` cannot be the zero address."
      },
      "balanceOf(address)": {
        "details": "See {IERC20-balanceOf}."
      },
      "decimals()": {
        "details": "Returns the number of decimals used to get its user representation. For example, if `decimals` equals `2`, a balance of `505` tokens should be displayed to a user as `5,05` (`505 / 10 ** 2`). Tokens usually opt for a value of 18, imitating the relationship between Ether and Wei. This is the value {ERC20} uses, unless {_setupDecimals} is called. NOTE: This information is only used for _display_ purposes: it in no way affects any of the arithmetic of the contract, including {IERC20-balanceOf} and {IERC20-transfer}."
      },
      "decreaseAllowance(address,uint256)": {
        "details": "Atomically decreases the allowance granted to `spender` by the caller. This is an alternative to {approve} that can be used as a mitigation for problems described in {IERC20-approve}. Emits an {Approval} event indicating the updated allowance. Requirements: - `spender` cannot be the zero address. - `spender` must have allowance for the caller of at least `subtractedValue`."
      },
      "increaseAllowance(address,uint256)": {
        "details": "Atomically increases the allowance granted to `spender` by the caller. This is an alternative to {approve} that can be used as a mitigation for problems described in {IERC20-approve}. Emits an {Approval} event indicating the updated allowance. Requirements: - `spender` cannot be the zero address."
      },
      "name()": {
        "details": "Returns the name of the token."
      },
      "symbol()": {
        "details": "Returns the symbol of the token, usually a shorter version of the name."
      },
      "totalSupply()": {
        "details": "See {IERC20-totalSupply}."
      },
      "transfer(address,uint256)": {
        "details": "See {IERC20-transfer}. Requirements: - `recipient` cannot be the zero address. - the caller must have a balance of at least `amount`."
      },
      "transferFrom(address,address,uint256)": {
        "details": "See {IERC20-transferFrom}. Emits an {Approval} event indicating the updated allowance. This is not required by the EIP. See the note at the beginning of {ERC20}. Requirements: - `sender` and `recipient` cannot be the zero address. - `sender` must have a balance of at least `amount`. - the caller must have allowance for ``sender``'s tokens of at least `amount`."
      }
    },
    "version": 1
  },
  "userdoc": {
    "kind": "user",
    "methods": {},
    "version": 1
  },
  "storageLayout": {
    "storage": [
      {
        "astId": 444,
        "contract": "contracts/token/TokenLocker.sol:TokenLocker",
        "label": "_balances",
        "offset": 0,
        "slot": "0",
        "type": "t_mapping(t_address,t_uint256)"
      },
      {
        "astId": 450,
        "contract": "contracts/token/TokenLocker.sol:TokenLocker",
        "label": "_allowances",
        "offset": 0,
        "slot": "1",
        "type": "t_mapping(t_address,t_mapping(t_address,t_uint256))"
      },
      {
        "astId": 452,
        "contract": "contracts/token/TokenLocker.sol:TokenLocker",
        "label": "_totalSupply",
        "offset": 0,
        "slot": "2",
        "type": "t_uint256"
      },
      {
        "astId": 454,
        "contract": "contracts/token/TokenLocker.sol:TokenLocker",
        "label": "_name",
        "offset": 0,
        "slot": "3",
        "type": "t_string_storage"
      },
      {
        "astId": 456,
        "contract": "contracts/token/TokenLocker.sol:TokenLocker",
        "label": "_symbol",
        "offset": 0,
        "slot": "4",
        "type": "t_string_storage"
      },
      {
        "astId": 458,
        "contract": "contracts/token/TokenLocker.sol:TokenLocker",
        "label": "_decimals",
        "offset": 0,
        "slot": "5",
        "type": "t_uint8"
      },
      {
        "astId": 1837,
        "contract": "contracts/token/TokenLocker.sol:TokenLocker",
        "label": "_owner",
        "offset": 1,
        "slot": "5",
        "type": "t_address"
      },
      {
        "astId": 1839,
        "contract": "contracts/token/TokenLocker.sol:TokenLocker",
        "label": "_pendingOwner",
        "offset": 0,
        "slot": "6",
        "type": "t_address"
      },
      {
        "astId": 3615,
        "contract": "contracts/token/TokenLocker.sol:TokenLocker",
        "label": "totalLockAmount",
        "offset": 0,
        "slot": "7",
        "type": "t_uint256"
      },
      {
        "astId": 3630,
        "contract": "contracts/token/TokenLocker.sol:TokenLocker",
        "label": "receivers",
        "offset": 0,
        "slot": "8",
        "type": "t_mapping(t_address,t_struct(ReleaseInfo)3626_storage)"
      },
      {
        "astId": 3634,
        "contract": "contracts/token/TokenLocker.sol:TokenLocker",
        "label": "userPending",
        "offset": 0,
        "slot": "9",
        "type": "t_mapping(t_address,t_uint256)"
      }
    ],
    "types": {
      "t_address": {
        "encoding": "inplace",
        "label": "address",
        "numberOfBytes": "20"
      },
      "t_bool": {
        "encoding": "inplace",
        "label": "bool",
        "numberOfBytes": "1"
      },
      "t_mapping(t_address,t_mapping(t_address,t_uint256))": {
        "encoding": "mapping",
        "key": "t_address",
        "label": "mapping(address => mapping(address => uint256))",
        "numberOfBytes": "32",
        "value": "t_mapping(t_address,t_uint256)"
      },
      "t_mapping(t_address,t_struct(ReleaseInfo)3626_storage)": {
        "encoding": "mapping",
        "key": "t_address",
        "label": "mapping(address => struct TokenLocker.ReleaseInfo)",
        "numberOfBytes": "32",
        "value": "t_struct(ReleaseInfo)3626_storage"
      },
      "t_mapping(t_address,t_uint256)": {
        "encoding": "mapping",
        "key": "t_address",
        "label": "mapping(address => uint256)",
        "numberOfBytes": "32",
        "value": "t_uint256"
      },
      "t_string_storage": {
        "encoding": "bytes",
        "label": "string",
        "numberOfBytes": "32"
      },
      "t_struct(ReleaseInfo)3626_storage": {
        "encoding": "inplace",
        "label": "struct TokenLocker.ReleaseInfo",
        "members": [
          {
            "astId": 3617,
            "contract": "contracts/token/TokenLocker.sol:TokenLocker",
            "label": "receiver",
            "offset": 0,
            "slot": "0",
            "type": "t_address"
          },
          {
            "astId": 3619,
            "contract": "contracts/token/TokenLocker.sol:TokenLocker",
            "label": "totalReleaseAmount",
            "offset": 0,
            "slot": "1",
            "type": "t_uint256"
          },
          {
            "astId": 3621,
            "contract": "contracts/token/TokenLocker.sol:TokenLocker",
            "label": "firstUnlock",
            "offset": 0,
            "slot": "2",
            "type": "t_bool"
          },
          {
            "astId": 3623,
            "contract": "contracts/token/TokenLocker.sol:TokenLocker",
            "label": "lastReleaseAt",
            "offset": 0,
            "slot": "3",
            "type": "t_uint256"
          },
          {
            "astId": 3625,
            "contract": "contracts/token/TokenLocker.sol:TokenLocker",
            "label": "alreadyReleasedAmount",
            "offset": 0,
            "slot": "4",
            "type": "t_uint256"
          }
        ],
        "numberOfBytes": "160"
      },
      "t_uint256": {
        "encoding": "inplace",
        "label": "uint256",
        "numberOfBytes": "32"
      },
      "t_uint8": {
        "encoding": "inplace",
        "label": "uint8",
        "numberOfBytes": "1"
      }
    }
  }
}