{
  "address": "0xEB0c3Bf30dcA147d838D7E8E4A72fc8bf333702B",
  "abi": [
    {
      "anonymous": false,
      "inputs": [
        {
          "indexed": true,
          "internalType": "address",
          "name": "previousOwner",
          "type": "address"
        },
        {
          "indexed": true,
          "internalType": "address",
          "name": "newOwner",
          "type": "address"
        }
      ],
      "name": "OwnershipTransferred",
      "type": "event"
    },
    {
      "anonymous": false,
      "inputs": [
        {
          "indexed": false,
          "internalType": "address",
          "name": "token",
          "type": "address"
        },
        {
          "indexed": false,
          "internalType": "uint256",
          "name": "tokenID",
          "type": "uint256"
        },
        {
          "indexed": false,
          "internalType": "uint256",
          "name": "fromChain",
          "type": "uint256"
        },
        {
          "indexed": false,
          "internalType": "uint256",
          "name": "toChain",
          "type": "uint256"
        }
      ],
      "name": "logLockNFT",
      "type": "event"
    },
    {
      "anonymous": false,
      "inputs": [
        {
          "indexed": false,
          "internalType": "address",
          "name": "token",
          "type": "address"
        },
        {
          "indexed": false,
          "internalType": "uint256",
          "name": "tokenID",
          "type": "uint256"
        },
        {
          "indexed": false,
          "internalType": "uint256",
          "name": "fromChain",
          "type": "uint256"
        },
        {
          "indexed": false,
          "internalType": "uint256",
          "name": "toChain",
          "type": "uint256"
        }
      ],
      "name": "logWithdrawNFT",
      "type": "event"
    },
    {
      "inputs": [
        {
          "internalType": "address",
          "name": "_token",
          "type": "address"
        },
        {
          "internalType": "uint256",
          "name": "tokenID",
          "type": "uint256"
        },
        {
          "internalType": "uint256",
          "name": "toChain",
          "type": "uint256"
        }
      ],
      "name": "lockNFT",
      "outputs": [],
      "stateMutability": "nonpayable",
      "type": "function"
    },
    {
      "inputs": [],
      "name": "owner",
      "outputs": [
        {
          "internalType": "address",
          "name": "",
          "type": "address"
        }
      ],
      "stateMutability": "view",
      "type": "function"
    },
    {
      "inputs": [],
      "name": "renounceOwnership",
      "outputs": [],
      "stateMutability": "nonpayable",
      "type": "function"
    },
    {
      "inputs": [
        {
          "internalType": "address",
          "name": "newOwner",
          "type": "address"
        }
      ],
      "name": "transferOwnership",
      "outputs": [],
      "stateMutability": "nonpayable",
      "type": "function"
    },
    {
      "inputs": [
        {
          "internalType": "address",
          "name": "_token",
          "type": "address"
        },
        {
          "internalType": "address",
          "name": "to",
          "type": "address"
        },
        {
          "internalType": "uint256",
          "name": "tokenID",
          "type": "uint256"
        },
        {
          "internalType": "uint256",
          "name": "fromChain",
          "type": "uint256"
        },
        {
          "internalType": "string",
          "name": "name",
          "type": "string"
        },
        {
          "internalType": "string",
          "name": "symbol",
          "type": "string"
        },
        {
          "internalType": "string",
          "name": "tokenURI",
          "type": "string"
        }
      ],
      "name": "withdrawNFT",
      "outputs": [],
      "stateMutability": "nonpayable",
      "type": "function"
    },
    {
      "inputs": [
        {
          "internalType": "address",
          "name": "",
          "type": "address"
        },
        {
          "internalType": "uint256",
          "name": "",
          "type": "uint256"
        }
      ],
      "name": "wrappedAssets",
      "outputs": [
        {
          "internalType": "address",
          "name": "",
          "type": "address"
        }
      ],
      "stateMutability": "view",
      "type": "function"
    }
  ],
  "transactionHash": "0xb49b08c8c80f7f8da82fd612d4bd7f3ec363009e17eaa20ee26055b0896df948",
  "args": [],
  "solcInputHash": "3f05badf0c96fd55ee328c20ce1a2e7e",
  "bytecode": "0x60806040524660015534801561001457600080fd5b5061001e33610023565b610073565b600080546001600160a01b038381166001600160a01b0319831681178455604051919092169283917f8be0079c531659141344cd1fd0a4f28419497f9722a3daafe3b4186f6b6457e09190a35050565b6132c9806100826000396000f3fe60806040523480156200001157600080fd5b50600436106200006a5760003560e01c806354c993ac146200006f578063715018a614620000885780638da5cb5b1462000092578063a19ccf0214620000bb578063db968cfa14620000f2578063f2fde38b1462000109575b600080fd5b6200008662000080366004620009ff565b62000120565b005b620000866200043a565b6000546001600160a01b03165b6040516001600160a01b03909116815260200160405180910390f35b6200009f620000cc366004620009d0565b60026020908152600092835260408084209091529082529020546001600160a01b031681565b620000866200010336600462000901565b62000475565b620000866200011a366004620008ba565b62000725565b600083905060006001600160a01b0316816001600160a01b0316633d6c043b6040518163ffffffff1660e01b815260040160206040518083038186803b1580156200016a57600080fd5b505afa1580156200017f573d6000803e3d6000fd5b505050506040513d601f19601f82011682018060405250810190620001a59190620008e1565b6001600160a01b0316146200038a5781816001600160a01b0316632c59f9c06040518163ffffffff1660e01b815260040160206040518083038186803b158015620001ef57600080fd5b505afa15801562000204573d6000803e3d6000fd5b505050506040513d601f19601f820116820180604052508101906200022a919062000a37565b146200026e5760405162461bcd60e51b815260206004820152600e60248201526d31b430b4b71034b99032b93937b960911b60448201526064015b60405180910390fd5b60405163282d3fdf60e01b8152336004820152602481018490526001600160a01b0382169063282d3fdf90604401600060405180830381600087803b158015620002b757600080fd5b505af1158015620002cc573d6000803e3d6000fd5b505050507f0e695e41c09754ca8687341e8c2e968b6688c2c3596e088dcb1e1575206fc0b4816001600160a01b0316633d6c043b6040518163ffffffff1660e01b815260040160206040518083038186803b1580156200032b57600080fd5b505afa15801562000340573d6000803e3d6000fd5b505050506040513d601f19601f82011682018060405250810190620003669190620008e1565b6001546040516200037c92918791879062000aa1565b60405180910390a162000434565b6040516323b872dd60e01b8152336004820152306024820152604481018490526001600160a01b038216906323b872dd90606401600060405180830381600087803b158015620003d957600080fd5b505af1158015620003ee573d6000803e3d6000fd5b505050507f0e695e41c09754ca8687341e8c2e968b6688c2c3596e088dcb1e1575206fc0b48484600154856040516200042b949392919062000aa1565b60405180910390a15b50505050565b6000546001600160a01b03163314620004675760405162461bcd60e51b8152600401620002659062000b0d565b620004736000620007c7565b565b6000546001600160a01b03163314620004a25760405162461bcd60e51b8152600401620002659062000b0d565b600154879085141562000560576040516323b872dd60e01b81523060048201526001600160a01b038881166024830152604482018890528216906323b872dd90606401600060405180830381600087803b1580156200050057600080fd5b505af115801562000515573d6000803e3d6000fd5b505050507f7b9b472f8453990a39bd528f9d54364b421cc3436484367511495bf052899b4b88878760015460405162000552949392919062000aa1565b60405180910390a16200071b565b6001600160a01b03808916600090815260026020908152604080832089845290915290205416806200060c5784848a886040516200059e9062000817565b620005ad949392919062000ac7565b604051809103906000f080158015620005ca573d6000803e3d6000fd5b506001600160a01b038a811660009081526002602090815260408083208b8452909152902080546001600160a01b031916918316919091179055915062000610565b8091505b6040516340c10f1960e01b81526001600160a01b038981166004830152602482018990528316906340c10f1990604401600060405180830381600087803b1580156200065b57600080fd5b505af115801562000670573d6000803e3d6000fd5b5050604051630588253160e21b81526001600160a01b038516925063162094c49150620006a4908a90879060040162000b42565b600060405180830381600087803b158015620006bf57600080fd5b505af1158015620006d4573d6000803e3d6000fd5b505050507f7b9b472f8453990a39bd528f9d54364b421cc3436484367511495bf052899b4b89888860015460405162000711949392919062000aa1565b60405180910390a1505b5050505050505050565b6000546001600160a01b03163314620007525760405162461bcd60e51b8152600401620002659062000b0d565b6001600160a01b038116620007b95760405162461bcd60e51b815260206004820152602660248201527f4f776e61626c653a206e6577206f776e657220697320746865207a65726f206160448201526564647265737360d01b606482015260840162000265565b620007c481620007c7565b50565b600080546001600160a01b038381166001600160a01b0319831681178455604051919092169283917f8be0079c531659141344cd1fd0a4f28419497f9722a3daafe3b4186f6b6457e09190a35050565b6127028062000b9283390190565b600082601f8301126200083757600080fd5b813567ffffffffffffffff8082111562000855576200085562000b65565b604051601f8301601f19908116603f0116810190828211818310171562000880576200088062000b65565b816040528381528660208588010111156200089a57600080fd5b836020870160208301376000602085830101528094505050505092915050565b600060208284031215620008cd57600080fd5b8135620008da8162000b7b565b9392505050565b600060208284031215620008f457600080fd5b8151620008da8162000b7b565b600080600080600080600060e0888a0312156200091d57600080fd5b87356200092a8162000b7b565b965060208801356200093c8162000b7b565b95506040880135945060608801359350608088013567ffffffffffffffff808211156200096857600080fd5b620009768b838c0162000825565b945060a08a01359150808211156200098d57600080fd5b6200099b8b838c0162000825565b935060c08a0135915080821115620009b257600080fd5b50620009c18a828b0162000825565b91505092959891949750929550565b60008060408385031215620009e457600080fd5b8235620009f18162000b7b565b946020939093013593505050565b60008060006060848603121562000a1557600080fd5b833562000a228162000b7b565b95602085013595506040909401359392505050565b60006020828403121562000a4a57600080fd5b5051919050565b6000815180845260005b8181101562000a795760208185018101518683018201520162000a5b565b8181111562000a8c576000602083870101525b50601f01601f19169290920160200192915050565b6001600160a01b0394909416845260208401929092526040830152606082015260800190565b60808152600062000adc608083018762000a51565b828103602084015262000af0818762000a51565b6001600160a01b0395909516604084015250506060015292915050565b6020808252818101527f4f776e61626c653a2063616c6c6572206973206e6f7420746865206f776e6572604082015260600190565b82815260406020820152600062000b5d604083018462000a51565b949350505050565b634e487b7160e01b600052604160045260246000fd5b6001600160a01b0381168114620007c457600080fdfe60806040523480156200001157600080fd5b506040516200270238038062002702833981016040819052620000349162000260565b8351849084906200004d90600090602085019062000103565b5080516200006390600190602084019062000103565b505050620000806200007a620000ad60201b60201c565b620000b1565b600d80546001600160a01b0319166001600160a01b039390931692909217909155600e5550620003469050565b3390565b600a80546001600160a01b038381166001600160a01b0319831681179093556040519116919082907f8be0079c531659141344cd1fd0a4f28419497f9722a3daafe3b4186f6b6457e090600090a35050565b8280546200011190620002f3565b90600052602060002090601f01602090048101928262000135576000855562000180565b82601f106200015057805160ff191683800117855562000180565b8280016001018555821562000180579182015b828111156200018057825182559160200191906001019062000163565b506200018e92915062000192565b5090565b5b808211156200018e576000815560010162000193565b600082601f830112620001bb57600080fd5b81516001600160401b0380821115620001d857620001d862000330565b604051601f8301601f19908116603f0116810190828211818310171562000203576200020362000330565b816040528381526020925086838588010111156200022057600080fd5b600091505b8382101562000244578582018301518183018401529082019062000225565b83821115620002565760008385830101525b9695505050505050565b600080600080608085870312156200027757600080fd5b84516001600160401b03808211156200028f57600080fd5b6200029d88838901620001a9565b95506020870151915080821115620002b457600080fd5b50620002c387828801620001a9565b604087015190945090506001600160a01b0381168114620002e357600080fd5b6060959095015193969295505050565b600181811c908216806200030857607f821691505b602082108114156200032a57634e487b7160e01b600052602260045260246000fd5b50919050565b634e487b7160e01b600052604160045260246000fd5b6123ac80620003566000396000f3fe608060405234801561001057600080fd5b50600436106101e55760003560e01c806342842e0e1161010f5780638832e6e3116100a2578063b88d4fde11610071578063b88d4fde146103eb578063c87b56dd146103fe578063e985e9c514610411578063f2fde38b1461044d57600080fd5b80638832e6e3146103ac5780638da5cb5b146103bf57806395d89b41146103d0578063a22cb465146103d857600080fd5b80636c0360eb116100de5780636c0360eb146103765780636e6b8cac1461037e57806370a0823114610391578063715018a6146103a457600080fd5b806342842e0e1461032a5780634f6ccce71461033d57806355f804b3146103505780636352211e1461036357600080fd5b806318160ddd116101875780632f745c59116101565780632f745c59146102e05780632f81bc71146102f35780633d6c043b1461030657806340c10f191461031757600080fd5b806318160ddd146102a057806323b872dd146102b2578063282d3fdf146102c55780632c59f9c0146102d857600080fd5b8063095ea7b3116101c3578063095ea7b3146102525780630fa3153414610267578063162094c41461027a578063180f6bbb1461028d57600080fd5b806301ffc9a7146101ea57806306fdde0314610212578063081812fc14610227575b600080fd5b6101fd6101f8366004611f7c565b610460565b60405190151581526020015b60405180910390f35b61021a61048b565b60405161020991906120d9565b61023a610235366004611feb565b61051d565b6040516001600160a01b039091168152602001610209565b610265610260366004611de6565b6105aa565b005b610265610275366004611feb565b6106c0565b610265610288366004612004565b6106f6565b61026561029b366004611e67565b61072e565b6008545b604051908152602001610209565b6102656102c0366004611d06565b610783565b6102656102d3366004611de6565b6107b4565b600e546102a4565b6102a46102ee366004611de6565b6107e9565b610265610301366004611e9a565b61087f565b600d546001600160a01b031661023a565b610265610325366004611de6565b610945565b610265610338366004611d06565b610991565b6102a461034b366004611feb565b6109ac565b61026561035e366004611fb6565b610a3f565b61023a610371366004611feb565b610a72565b61021a610ae9565b61026561038c366004611efe565b610b77565b6102a461039f366004611cb8565b610c3e565b610265610cc5565b6102656103ba366004611e10565b610cfb565b600a546001600160a01b031661023a565b61021a610d30565b6102656103e6366004611daa565b610d3f565b6102656103f9366004611d42565b610d4a565b61021a61040c366004611feb565b610d7c565b6101fd61041f366004611cd3565b6001600160a01b03918216600090815260056020908152604080832093909416825291909152205460ff1690565b61026561045b366004611cb8565b610e47565b60006001600160e01b0319821663780e9d6360e01b1480610485575061048582610edf565b92915050565b60606000805461049a90612288565b80601f01602080910402602001604051908101604052809291908181526020018280546104c690612288565b80156105135780601f106104e857610100808354040283529160200191610513565b820191906000526020600020905b8154815290600101906020018083116104f657829003601f168201915b5050505050905090565b600061052882610f2f565b61058e5760405162461bcd60e51b815260206004820152602c60248201527f4552433732313a20617070726f76656420717565727920666f72206e6f6e657860448201526b34b9ba32b73a103a37b5b2b760a11b60648201526084015b60405180910390fd5b506000908152600460205260409020546001600160a01b031690565b60006105b582610a72565b9050806001600160a01b0316836001600160a01b031614156106235760405162461bcd60e51b815260206004820152602160248201527f4552433732313a20617070726f76616c20746f2063757272656e74206f776e656044820152603960f91b6064820152608401610585565b336001600160a01b038216148061063f575061063f813361041f565b6106b15760405162461bcd60e51b815260206004820152603860248201527f4552433732313a20617070726f76652063616c6c6572206973206e6f74206f7760448201527f6e6572206e6f7220617070726f76656420666f7220616c6c00000000000000006064820152608401610585565b6106bb8383610f4c565b505050565b600a546001600160a01b031633146106ea5760405162461bcd60e51b81526004016105859061213e565b6106f381610fba565b50565b600a546001600160a01b031633146107205760405162461bcd60e51b81526004016105859061213e565b61072a8282611061565b5050565b600a546001600160a01b031633146107585760405162461bcd60e51b81526004016105859061213e565b815b81811161077d5761076b84826110ea565b80610775816122c3565b91505061075a565b50505050565b61078d3382611229565b6107a95760405162461bcd60e51b815260040161058590612173565b6106bb838383611313565b600a546001600160a01b031633146107de5760405162461bcd60e51b81526004016105859061213e565b61072a823083611313565b60006107f483610c3e565b82106108565760405162461bcd60e51b815260206004820152602b60248201527f455243373231456e756d657261626c653a206f776e657220696e646578206f7560448201526a74206f6620626f756e647360a81b6064820152608401610585565b506001600160a01b03919091166000908152600660209081526040808320938352929052205490565b600a546001600160a01b031633146108a95760405162461bcd60e51b81526004016105859061213e565b80518251146108eb5760405162461bcd60e51b815260206004820152600e60248201526d0d2d8d8cacec2d840d8cadccee8d60931b6044820152606401610585565b60005b82518110156106bb5761093383828151811061090c5761090c612334565b602002602001015183838151811061092657610926612334565b60200260200101516110ea565b8061093d816122c3565b9150506108ee565b600a546001600160a01b0316331461096f5760405162461bcd60e51b81526004016105859061213e565b61097881610f2f565b6109865761072a82826110ea565b61072a308383611313565b6106bb83838360405180602001604052806000815250610d4a565b60006109b760085490565b8210610a1a5760405162461bcd60e51b815260206004820152602c60248201527f455243373231456e756d657261626c653a20676c6f62616c20696e646578206f60448201526b7574206f6620626f756e647360a01b6064820152608401610585565b60088281548110610a2d57610a2d612334565b90600052602060002001549050919050565b600a546001600160a01b03163314610a695760405162461bcd60e51b81526004016105859061213e565b6106f3816114be565b6000818152600260205260408120546001600160a01b0316806104855760405162461bcd60e51b815260206004820152602960248201527f4552433732313a206f776e657220717565727920666f72206e6f6e657869737460448201526832b73a103a37b5b2b760b91b6064820152608401610585565b600b8054610af690612288565b80601f0160208091040260200160405190810160405280929190818152602001828054610b2290612288565b8015610b6f5780601f10610b4457610100808354040283529160200191610b6f565b820191906000526020600020905b815481529060010190602001808311610b5257829003601f168201915b505050505081565b600a546001600160a01b03163314610ba15760405162461bcd60e51b81526004016105859061213e565b8151835114610be35760405162461bcd60e51b815260206004820152600e60248201526d0d2d8d8cacec2d840d8cadccee8d60931b6044820152606401610585565b60005b835181101561077d57610c2c848281518110610c0457610c04612334565b6020026020010151848381518110610c1e57610c1e612334565b6020026020010151846114d1565b80610c36816122c3565b915050610be6565b60006001600160a01b038216610ca95760405162461bcd60e51b815260206004820152602a60248201527f4552433732313a2062616c616e636520717565727920666f7220746865207a65604482015269726f206164647265737360b01b6064820152608401610585565b506001600160a01b031660009081526003602052604090205490565b600a546001600160a01b03163314610cef5760405162461bcd60e51b81526004016105859061213e565b610cf96000611504565b565b600a546001600160a01b03163314610d255760405162461bcd60e51b81526004016105859061213e565b6106bb8383836114d1565b60606001805461049a90612288565b61072a338383611556565b610d543383611229565b610d705760405162461bcd60e51b815260040161058590612173565b61077d84848484611625565b6060610d8782610f2f565b610deb5760405162461bcd60e51b815260206004820152602f60248201527f4552433732314d657461646174613a2055524920717565727920666f72206e6f60448201526e3732bc34b9ba32b73a103a37b5b2b760891b6064820152608401610585565b6000610df5611658565b90506000815111610e155760405180602001604052806000815250610e40565b80610e1f84611667565b604051602001610e3092919061206d565b6040516020818303038152906040525b9392505050565b600a546001600160a01b03163314610e715760405162461bcd60e51b81526004016105859061213e565b6001600160a01b038116610ed65760405162461bcd60e51b815260206004820152602660248201527f4f776e61626c653a206e6577206f776e657220697320746865207a65726f206160448201526564647265737360d01b6064820152608401610585565b6106f381611504565b60006001600160e01b031982166380ac58cd60e01b1480610f1057506001600160e01b03198216635b5e139f60e01b145b8061048557506301ffc9a760e01b6001600160e01b0319831614610485565b6000908152600260205260409020546001600160a01b0316151590565b600081815260046020526040902080546001600160a01b0319166001600160a01b0384169081179091558190610f8182610a72565b6001600160a01b03167f8c5be1e5ebec7d5bd14f71427d1e84f3dd0314c0f7b2291e5b200ac8c7c3b92560405160405180910390a45050565b6000610fc582610a72565b9050610fd381600084611765565b610fde600083610f4c565b6001600160a01b0381166000908152600360205260408120805460019290611007908490612245565b909155505060008281526002602052604080822080546001600160a01b0319169055518391906001600160a01b038416907fddf252ad1be2c89b69c2b068fc378daa952ba7f163c4a11628f55a4df523b3ef908390a45050565b61106a82610f2f565b6110cb5760405162461bcd60e51b815260206004820152602c60248201527f4552433732314d657461646174613a2055524920736574206f66206e6f6e657860448201526b34b9ba32b73a103a37b5b2b760a11b6064820152608401610585565b6000828152600c6020908152604090912082516106bb92840190611aba565b6001600160a01b0382166111405760405162461bcd60e51b815260206004820181905260248201527f4552433732313a206d696e7420746f20746865207a65726f20616464726573736044820152606401610585565b61114981610f2f565b156111965760405162461bcd60e51b815260206004820152601c60248201527f4552433732313a20746f6b656e20616c7265616479206d696e746564000000006044820152606401610585565b6111a260008383611765565b6001600160a01b03821660009081526003602052604081208054600192906111cb908490612219565b909155505060008181526002602052604080822080546001600160a01b0319166001600160a01b03861690811790915590518392907fddf252ad1be2c89b69c2b068fc378daa952ba7f163c4a11628f55a4df523b3ef908290a45050565b600061123482610f2f565b6112955760405162461bcd60e51b815260206004820152602c60248201527f4552433732313a206f70657261746f7220717565727920666f72206e6f6e657860448201526b34b9ba32b73a103a37b5b2b760a11b6064820152608401610585565b60006112a083610a72565b9050806001600160a01b0316846001600160a01b031614806112db5750836001600160a01b03166112d08461051d565b6001600160a01b0316145b8061130b57506001600160a01b0380821660009081526005602090815260408083209388168352929052205460ff165b949350505050565b826001600160a01b031661132682610a72565b6001600160a01b03161461138e5760405162461bcd60e51b815260206004820152602960248201527f4552433732313a207472616e73666572206f6620746f6b656e2074686174206960448201526839903737ba1037bbb760b91b6064820152608401610585565b6001600160a01b0382166113f05760405162461bcd60e51b8152602060048201526024808201527f4552433732313a207472616e7366657220746f20746865207a65726f206164646044820152637265737360e01b6064820152608401610585565b6113fb838383611765565b611406600082610f4c565b6001600160a01b038316600090815260036020526040812080546001929061142f908490612245565b90915550506001600160a01b038216600090815260036020526040812080546001929061145d908490612219565b909155505060008181526002602052604080822080546001600160a01b0319166001600160a01b0386811691821790925591518493918716917fddf252ad1be2c89b69c2b068fc378daa952ba7f163c4a11628f55a4df523b3ef91a4505050565b805161072a90600b906020840190611aba565b6114db83836110ea565b6114e8600084848461181d565b6106bb5760405162461bcd60e51b8152600401610585906120ec565b600a80546001600160a01b038381166001600160a01b0319831681179093556040519116919082907f8be0079c531659141344cd1fd0a4f28419497f9722a3daafe3b4186f6b6457e090600090a35050565b816001600160a01b0316836001600160a01b031614156115b85760405162461bcd60e51b815260206004820152601960248201527f4552433732313a20617070726f766520746f2063616c6c6572000000000000006044820152606401610585565b6001600160a01b03838116600081815260056020908152604080832094871680845294825291829020805460ff191686151590811790915591519182527f17307eab39ab6107e8899845ad3d59bd9653f200f220920489ca2b5937696c31910160405180910390a3505050565b611630848484611313565b61163c8484848461181d565b61077d5760405162461bcd60e51b8152600401610585906120ec565b6060600b805461049a90612288565b60608161168b5750506040805180820190915260018152600360fc1b602082015290565b8160005b81156116b5578061169f816122c3565b91506116ae9050600a83612231565b915061168f565b60008167ffffffffffffffff8111156116d0576116d061234a565b6040519080825280601f01601f1916602001820160405280156116fa576020820181803683370190505b5090505b841561130b5761170f600183612245565b915061171c600a866122de565b611727906030612219565b60f81b81838151811061173c5761173c612334565b60200101906001600160f81b031916908160001a90535061175e600a86612231565b94506116fe565b6001600160a01b0383166117c0576117bb81600880546000838152600960205260408120829055600182018355919091527ff3f7a9fe364faab93b216da50a3214154f22a0a2b415b23a84c8169e8b636ee30155565b6117e3565b816001600160a01b0316836001600160a01b0316146117e3576117e3838261192a565b6001600160a01b0382166117fa576106bb816119c7565b826001600160a01b0316826001600160a01b0316146106bb576106bb8282611a76565b60006001600160a01b0384163b1561191f57604051630a85bd0160e11b81526001600160a01b0385169063150b7a029061186190339089908890889060040161209c565b602060405180830381600087803b15801561187b57600080fd5b505af19250505080156118ab575060408051601f3d908101601f191682019092526118a891810190611f99565b60015b611905573d8080156118d9576040519150601f19603f3d011682016040523d82523d6000602084013e6118de565b606091505b5080516118fd5760405162461bcd60e51b8152600401610585906120ec565b805181602001fd5b6001600160e01b031916630a85bd0160e11b14905061130b565b506001949350505050565b6000600161193784610c3e565b6119419190612245565b600083815260076020526040902054909150808214611994576001600160a01b03841660009081526006602090815260408083208584528252808320548484528184208190558352600790915290208190555b5060009182526007602090815260408084208490556001600160a01b039094168352600681528383209183525290812055565b6008546000906119d990600190612245565b60008381526009602052604081205460088054939450909284908110611a0157611a01612334565b906000526020600020015490508060088381548110611a2257611a22612334565b6000918252602080832090910192909255828152600990915260408082208490558582528120556008805480611a5a57611a5a61231e565b6001900381819060005260206000200160009055905550505050565b6000611a8183610c3e565b6001600160a01b039093166000908152600660209081526040808320868452825280832085905593825260079052919091209190915550565b828054611ac690612288565b90600052602060002090601f016020900481019282611ae85760008555611b2e565b82601f10611b0157805160ff1916838001178555611b2e565b82800160010185558215611b2e579182015b82811115611b2e578251825591602001919060010190611b13565b50611b3a929150611b3e565b5090565b5b80821115611b3a5760008155600101611b3f565b80356001600160a01b0381168114611b6a57600080fd5b919050565b600082601f830112611b8057600080fd5b81356020611b95611b90836121f5565b6121c4565b80838252828201915082860187848660051b8901011115611bb557600080fd5b60005b85811015611bdb57611bc982611b53565b84529284019290840190600101611bb8565b5090979650505050505050565b600082601f830112611bf957600080fd5b81356020611c09611b90836121f5565b80838252828201915082860187848660051b8901011115611c2957600080fd5b60005b85811015611bdb57813584529284019290840190600101611c2c565b600082601f830112611c5957600080fd5b813567ffffffffffffffff811115611c7357611c7361234a565b611c86601f8201601f19166020016121c4565b818152846020838601011115611c9b57600080fd5b816020850160208301376000918101602001919091529392505050565b600060208284031215611cca57600080fd5b610e4082611b53565b60008060408385031215611ce657600080fd5b611cef83611b53565b9150611cfd60208401611b53565b90509250929050565b600080600060608486031215611d1b57600080fd5b611d2484611b53565b9250611d3260208501611b53565b9150604084013590509250925092565b60008060008060808587031215611d5857600080fd5b611d6185611b53565b9350611d6f60208601611b53565b925060408501359150606085013567ffffffffffffffff811115611d9257600080fd5b611d9e87828801611c48565b91505092959194509250565b60008060408385031215611dbd57600080fd5b611dc683611b53565b915060208301358015158114611ddb57600080fd5b809150509250929050565b60008060408385031215611df957600080fd5b611e0283611b53565b946020939093013593505050565b600080600060608486031215611e2557600080fd5b611e2e84611b53565b925060208401359150604084013567ffffffffffffffff811115611e5157600080fd5b611e5d86828701611c48565b9150509250925092565b600080600060608486031215611e7c57600080fd5b611e8584611b53565b95602085013595506040909401359392505050565b60008060408385031215611ead57600080fd5b823567ffffffffffffffff80821115611ec557600080fd5b611ed186838701611b6f565b93506020850135915080821115611ee757600080fd5b50611ef485828601611be8565b9150509250929050565b600080600060608486031215611f1357600080fd5b833567ffffffffffffffff80821115611f2b57600080fd5b611f3787838801611b6f565b94506020860135915080821115611f4d57600080fd5b611f5987838801611be8565b93506040860135915080821115611f6f57600080fd5b50611e5d86828701611c48565b600060208284031215611f8e57600080fd5b8135610e4081612360565b600060208284031215611fab57600080fd5b8151610e4081612360565b600060208284031215611fc857600080fd5b813567ffffffffffffffff811115611fdf57600080fd5b61130b84828501611c48565b600060208284031215611ffd57600080fd5b5035919050565b6000806040838503121561201757600080fd5b82359150602083013567ffffffffffffffff81111561203557600080fd5b611ef485828601611c48565b6000815180845261205981602086016020860161225c565b601f01601f19169290920160200192915050565b6000835161207f81846020880161225c565b83519083019061209381836020880161225c565b01949350505050565b6001600160a01b03858116825284166020820152604081018390526080606082018190526000906120cf90830184612041565b9695505050505050565b602081526000610e406020830184612041565b60208082526032908201527f4552433732313a207472616e7366657220746f206e6f6e20455243373231526560408201527131b2b4bb32b91034b6b83632b6b2b73a32b960711b606082015260800190565b6020808252818101527f4f776e61626c653a2063616c6c6572206973206e6f7420746865206f776e6572604082015260600190565b60208082526031908201527f4552433732313a207472616e736665722063616c6c6572206973206e6f74206f6040820152701ddb995c881b9bdc88185c1c1c9bdd9959607a1b606082015260800190565b604051601f8201601f1916810167ffffffffffffffff811182821017156121ed576121ed61234a565b604052919050565b600067ffffffffffffffff82111561220f5761220f61234a565b5060051b60200190565b6000821982111561222c5761222c6122f2565b500190565b60008261224057612240612308565b500490565b600082821015612257576122576122f2565b500390565b60005b8381101561227757818101518382015260200161225f565b8381111561077d5750506000910152565b600181811c9082168061229c57607f821691505b602082108114156122bd57634e487b7160e01b600052602260045260246000fd5b50919050565b60006000198214156122d7576122d76122f2565b5060010190565b6000826122ed576122ed612308565b500690565b634e487b7160e01b600052601160045260246000fd5b634e487b7160e01b600052601260045260246000fd5b634e487b7160e01b600052603160045260246000fd5b634e487b7160e01b600052603260045260246000fd5b634e487b7160e01b600052604160045260246000fd5b6001600160e01b0319811681146106f357600080fdfea26469706673582212204c609cf2e3e163ad8e8f053cb8a74793d35731670ad342721cab9b46479e96af64736f6c63430008070033a26469706673582212201cce7bfcc7292c190bca7b0a1adfc3dbc66188d8c1184f00631c606f9da224ce64736f6c63430008070033",
  "devdoc": {
    "kind": "dev",
    "methods": {
      "owner()": {
        "details": "Returns the address of the current owner."
      },
      "renounceOwnership()": {
        "details": "Leaves the contract without owner. It will not be possible to call `onlyOwner` functions anymore. Can only be called by the current owner. NOTE: Renouncing ownership will leave the contract without an owner, thereby removing any functionality that is only available to the owner."
      },
      "transferOwnership(address)": {
        "details": "Transfers ownership of the contract to a new account (`newOwner`). Can only be called by the current owner."
      }
    },
    "version": 1
  },
  "userdoc": {
    "kind": "user",
    "methods": {},
    "version": 1
  },
  "storageLayout": {
    "storage": [
      {
        "astId": 539,
        "contract": "contracts/bridgenft/NFTBridge.sol:NFTBridge",
        "label": "_owner",
        "offset": 0,
        "slot": "0",
        "type": "t_address"
      },
      {
        "astId": 5615,
        "contract": "contracts/bridgenft/NFTBridge.sol:NFTBridge",
        "label": "chainId",
        "offset": 0,
        "slot": "1",
        "type": "t_uint256"
      },
      {
        "astId": 5641,
        "contract": "contracts/bridgenft/NFTBridge.sol:NFTBridge",
        "label": "wrappedAssets",
        "offset": 0,
        "slot": "2",
        "type": "t_mapping(t_address,t_mapping(t_uint256,t_address))"
      }
    ],
    "types": {
      "t_address": {
        "encoding": "inplace",
        "label": "address",
        "numberOfBytes": "20"
      },
      "t_mapping(t_address,t_mapping(t_uint256,t_address))": {
        "encoding": "mapping",
        "key": "t_address",
        "label": "mapping(address => mapping(uint256 => address))",
        "numberOfBytes": "32",
        "value": "t_mapping(t_uint256,t_address)"
      },
      "t_mapping(t_uint256,t_address)": {
        "encoding": "mapping",
        "key": "t_uint256",
        "label": "mapping(uint256 => address)",
        "numberOfBytes": "32",
        "value": "t_address"
      },
      "t_uint256": {
        "encoding": "inplace",
        "label": "uint256",
        "numberOfBytes": "32"
      }
    }
  }
}