{
  "address": "0x95Df93bdBBbf0bB1361bA66b79CACe1Cf4E1f998",
  "abi": [
    {
      "inputs": [
        {
          "internalType": "address",
          "name": "to",
          "type": "address"
        }
      ],
      "stateMutability": "nonpayable",
      "type": "constructor"
    },
    {
      "anonymous": false,
      "inputs": [
        {
          "indexed": true,
          "internalType": "address",
          "name": "owner",
          "type": "address"
        },
        {
          "indexed": true,
          "internalType": "address",
          "name": "spender",
          "type": "address"
        },
        {
          "indexed": false,
          "internalType": "uint256",
          "name": "value",
          "type": "uint256"
        }
      ],
      "name": "Approval",
      "type": "event"
    },
    {
      "anonymous": false,
      "inputs": [
        {
          "indexed": true,
          "internalType": "address",
          "name": "from",
          "type": "address"
        },
        {
          "indexed": true,
          "internalType": "address",
          "name": "to",
          "type": "address"
        },
        {
          "indexed": false,
          "internalType": "uint256",
          "name": "value",
          "type": "uint256"
        }
      ],
      "name": "Transfer",
      "type": "event"
    },
    {
      "inputs": [
        {
          "internalType": "address",
          "name": "owner",
          "type": "address"
        },
        {
          "internalType": "address",
          "name": "spender",
          "type": "address"
        }
      ],
      "name": "allowance",
      "outputs": [
        {
          "internalType": "uint256",
          "name": "",
          "type": "uint256"
        }
      ],
      "stateMutability": "view",
      "type": "function"
    },
    {
      "inputs": [
        {
          "internalType": "address",
          "name": "spender",
          "type": "address"
        },
        {
          "internalType": "uint256",
          "name": "amount",
          "type": "uint256"
        }
      ],
      "name": "approve",
      "outputs": [
        {
          "internalType": "bool",
          "name": "",
          "type": "bool"
        }
      ],
      "stateMutability": "nonpayable",
      "type": "function"
    },
    {
      "inputs": [
        {
          "internalType": "address",
          "name": "account",
          "type": "address"
        }
      ],
      "name": "balanceOf",
      "outputs": [
        {
          "internalType": "uint256",
          "name": "",
          "type": "uint256"
        }
      ],
      "stateMutability": "view",
      "type": "function"
    },
    {
      "inputs": [
        {
          "internalType": "address",
          "name": "from",
          "type": "address"
        },
        {
          "internalType": "uint256",
          "name": "amount",
          "type": "uint256"
        }
      ],
      "name": "burn",
      "outputs": [],
      "stateMutability": "nonpayable",
      "type": "function"
    },
    {
      "inputs": [],
      "name": "decimals",
      "outputs": [
        {
          "internalType": "uint8",
          "name": "",
          "type": "uint8"
        }
      ],
      "stateMutability": "view",
      "type": "function"
    },
    {
      "inputs": [
        {
          "internalType": "address",
          "name": "spender",
          "type": "address"
        },
        {
          "internalType": "uint256",
          "name": "subtractedValue",
          "type": "uint256"
        }
      ],
      "name": "decreaseAllowance",
      "outputs": [
        {
          "internalType": "bool",
          "name": "",
          "type": "bool"
        }
      ],
      "stateMutability": "nonpayable",
      "type": "function"
    },
    {
      "inputs": [
        {
          "internalType": "address",
          "name": "spender",
          "type": "address"
        },
        {
          "internalType": "uint256",
          "name": "addedValue",
          "type": "uint256"
        }
      ],
      "name": "increaseAllowance",
      "outputs": [
        {
          "internalType": "bool",
          "name": "",
          "type": "bool"
        }
      ],
      "stateMutability": "nonpayable",
      "type": "function"
    },
    {
      "inputs": [],
      "name": "isMap",
      "outputs": [
        {
          "internalType": "bool",
          "name": "",
          "type": "bool"
        }
      ],
      "stateMutability": "view",
      "type": "function"
    },
    {
      "inputs": [
        {
          "internalType": "address",
          "name": "to",
          "type": "address"
        },
        {
          "internalType": "uint256",
          "name": "amount",
          "type": "uint256"
        }
      ],
      "name": "mint",
      "outputs": [],
      "stateMutability": "nonpayable",
      "type": "function"
    },
    {
      "inputs": [],
      "name": "name",
      "outputs": [
        {
          "internalType": "string",
          "name": "",
          "type": "string"
        }
      ],
      "stateMutability": "view",
      "type": "function"
    },
    {
      "inputs": [],
      "name": "symbol",
      "outputs": [
        {
          "internalType": "string",
          "name": "",
          "type": "string"
        }
      ],
      "stateMutability": "view",
      "type": "function"
    },
    {
      "inputs": [],
      "name": "totalSupply",
      "outputs": [
        {
          "internalType": "uint256",
          "name": "",
          "type": "uint256"
        }
      ],
      "stateMutability": "view",
      "type": "function"
    },
    {
      "inputs": [
        {
          "internalType": "address",
          "name": "recipient",
          "type": "address"
        },
        {
          "internalType": "uint256",
          "name": "amount",
          "type": "uint256"
        }
      ],
      "name": "transfer",
      "outputs": [
        {
          "internalType": "bool",
          "name": "",
          "type": "bool"
        }
      ],
      "stateMutability": "nonpayable",
      "type": "function"
    },
    {
      "inputs": [
        {
          "internalType": "address",
          "name": "sender",
          "type": "address"
        },
        {
          "internalType": "address",
          "name": "recipient",
          "type": "address"
        },
        {
          "internalType": "uint256",
          "name": "amount",
          "type": "uint256"
        }
      ],
      "name": "transferFrom",
      "outputs": [
        {
          "internalType": "bool",
          "name": "",
          "type": "bool"
        }
      ],
      "stateMutability": "nonpayable",
      "type": "function"
    }
  ],
  "transactionHash": "0x09bb73e48efb6a08abe693cf9f268631da9201a0c094bcc91f46ac969b74374f",
  "args": [
    "0x289F8F063c4304F432bb96DD31e82bdCc5CcE142"
  ],
  "solcInputHash": "7fd32cac4ec9a3c1f86da4bad68dd6bb",
  "bytecode": "0x60806040526005805460ff191660011790553480156200001e57600080fd5b5060405162000e9438038062000e94833981016040819052620000419162000257565b60408051808201825260098152682a32b9ba1021b7b4b760b91b602080830191825283518085019094526002845261544360f01b9084015281519192916200008c91600391620001b1565b508051620000a2906004906020840190620001b1565b505050620000c2816a52b7d2dcc80cd2e4000000620000c960201b60201c565b50620002ed565b6001600160a01b038216620001245760405162461bcd60e51b815260206004820152601f60248201527f45524332303a206d696e7420746f20746865207a65726f206164647265737300604482015260640160405180910390fd5b806002600082825462000138919062000289565b90915550506001600160a01b038216600090815260208190526040812080548392906200016790849062000289565b90915550506040518181526001600160a01b038316906000907fddf252ad1be2c89b69c2b068fc378daa952ba7f163c4a11628f55a4df523b3ef9060200160405180910390a35050565b828054620001bf90620002b0565b90600052602060002090601f016020900481019282620001e357600085556200022e565b82601f10620001fe57805160ff19168380011785556200022e565b828001600101855582156200022e579182015b828111156200022e57825182559160200191906001019062000211565b506200023c92915062000240565b5090565b5b808211156200023c576000815560010162000241565b6000602082840312156200026a57600080fd5b81516001600160a01b03811681146200028257600080fd5b9392505050565b60008219821115620002ab57634e487b7160e01b600052601160045260246000fd5b500190565b600181811c90821680620002c557607f821691505b60208210811415620002e757634e487b7160e01b600052602260045260246000fd5b50919050565b610b9780620002fd6000396000f3fe608060405234801561001057600080fd5b50600436106100ea5760003560e01c80636c3c1acf1161008c5780639dc29fac116100665780639dc29fac146101ca578063a457c2d7146101dd578063a9059cbb146101f0578063dd62ed3e1461020357600080fd5b80636c3c1acf1461018c57806370a082311461019957806395d89b41146101c257600080fd5b806323b872dd116100c857806323b872dd14610142578063313ce56714610155578063395093511461016457806340c10f191461017757600080fd5b806306fdde03146100ef578063095ea7b31461010d57806318160ddd14610130575b600080fd5b6100f761023c565b6040516101049190610a8c565b60405180910390f35b61012061011b366004610a62565b6102ce565b6040519015158152602001610104565b6002545b604051908152602001610104565b610120610150366004610a26565b6102e4565b60405160128152602001610104565b610120610172366004610a62565b610393565b61018a610185366004610a62565b6103cf565b005b6005546101209060ff1681565b6101346101a73660046109d1565b6001600160a01b031660009081526020819052604090205490565b6100f76103dd565b61018a6101d8366004610a62565b6103ec565b6101206101eb366004610a62565b6103f6565b6101206101fe366004610a62565b61048f565b6101346102113660046109f3565b6001600160a01b03918216600090815260016020908152604080832093909416825291909152205490565b60606003805461024b90610b10565b80601f016020809104026020016040519081016040528092919081815260200182805461027790610b10565b80156102c45780601f10610299576101008083540402835291602001916102c4565b820191906000526020600020905b8154815290600101906020018083116102a757829003601f168201915b5050505050905090565b60006102db33848461049c565b50600192915050565b60006102f18484846105c1565b6001600160a01b03841660009081526001602090815260408083203384529091529020548281101561037b5760405162461bcd60e51b815260206004820152602860248201527f45524332303a207472616e7366657220616d6f756e74206578636565647320616044820152676c6c6f77616e636560c01b60648201526084015b60405180910390fd5b610388853385840361049c565b506001949350505050565b3360008181526001602090815260408083206001600160a01b038716845290915281205490916102db9185906103ca908690610ae1565b61049c565b6103d98282610790565b5050565b60606004805461024b90610b10565b6103d9828261086f565b3360009081526001602090815260408083206001600160a01b0386168452909152812054828110156104785760405162461bcd60e51b815260206004820152602560248201527f45524332303a2064656372656173656420616c6c6f77616e63652062656c6f77604482015264207a65726f60d81b6064820152608401610372565b610485338585840361049c565b5060019392505050565b60006102db3384846105c1565b6001600160a01b0383166104fe5760405162461bcd60e51b8152602060048201526024808201527f45524332303a20617070726f76652066726f6d20746865207a65726f206164646044820152637265737360e01b6064820152608401610372565b6001600160a01b03821661055f5760405162461bcd60e51b815260206004820152602260248201527f45524332303a20617070726f766520746f20746865207a65726f206164647265604482015261737360f01b6064820152608401610372565b6001600160a01b0383811660008181526001602090815260408083209487168084529482529182902085905590518481527f8c5be1e5ebec7d5bd14f71427d1e84f3dd0314c0f7b2291e5b200ac8c7c3b92591015b60405180910390a3505050565b6001600160a01b0383166106255760405162461bcd60e51b815260206004820152602560248201527f45524332303a207472616e736665722066726f6d20746865207a65726f206164604482015264647265737360d81b6064820152608401610372565b6001600160a01b0382166106875760405162461bcd60e51b815260206004820152602360248201527f45524332303a207472616e7366657220746f20746865207a65726f206164647260448201526265737360e81b6064820152608401610372565b6001600160a01b038316600090815260208190526040902054818110156106ff5760405162461bcd60e51b815260206004820152602660248201527f45524332303a207472616e7366657220616d6f756e7420657863656564732062604482015265616c616e636560d01b6064820152608401610372565b6001600160a01b03808516600090815260208190526040808220858503905591851681529081208054849290610736908490610ae1565b92505081905550826001600160a01b0316846001600160a01b03167fddf252ad1be2c89b69c2b068fc378daa952ba7f163c4a11628f55a4df523b3ef8460405161078291815260200190565b60405180910390a350505050565b6001600160a01b0382166107e65760405162461bcd60e51b815260206004820152601f60248201527f45524332303a206d696e7420746f20746865207a65726f2061646472657373006044820152606401610372565b80600260008282546107f89190610ae1565b90915550506001600160a01b03821660009081526020819052604081208054839290610825908490610ae1565b90915550506040518181526001600160a01b038316906000907fddf252ad1be2c89b69c2b068fc378daa952ba7f163c4a11628f55a4df523b3ef9060200160405180910390a35050565b6001600160a01b0382166108cf5760405162461bcd60e51b815260206004820152602160248201527f45524332303a206275726e2066726f6d20746865207a65726f206164647265736044820152607360f81b6064820152608401610372565b6001600160a01b038216600090815260208190526040902054818110156109435760405162461bcd60e51b815260206004820152602260248201527f45524332303a206275726e20616d6f756e7420657863656564732062616c616e604482015261636560f01b6064820152608401610372565b6001600160a01b0383166000908152602081905260408120838303905560028054849290610972908490610af9565b90915550506040518281526000906001600160a01b038516907fddf252ad1be2c89b69c2b068fc378daa952ba7f163c4a11628f55a4df523b3ef906020016105b4565b80356001600160a01b03811681146109cc57600080fd5b919050565b6000602082840312156109e357600080fd5b6109ec826109b5565b9392505050565b60008060408385031215610a0657600080fd5b610a0f836109b5565b9150610a1d602084016109b5565b90509250929050565b600080600060608486031215610a3b57600080fd5b610a44846109b5565b9250610a52602085016109b5565b9150604084013590509250925092565b60008060408385031215610a7557600080fd5b610a7e836109b5565b946020939093013593505050565b600060208083528351808285015260005b81811015610ab957858101830151858201604001528201610a9d565b81811115610acb576000604083870101525b50601f01601f1916929092016040019392505050565b60008219821115610af457610af4610b4b565b500190565b600082821015610b0b57610b0b610b4b565b500390565b600181811c90821680610b2457607f821691505b60208210811415610b4557634e487b7160e01b600052602260045260246000fd5b50919050565b634e487b7160e01b600052601160045260246000fdfea26469706673582212207b6d44388e75b7f341cdf7ecddac7a80e685365d0f87005c2b6eeb1d0c5ffcf164736f6c63430008070033",
  "devdoc": {
    "kind": "dev",
    "methods": {
      "allowance(address,address)": {
        "details": "See {IERC20-allowance}."
      },
      "approve(address,uint256)": {
        "details": "See {IERC20-approve}. Requirements: - `spender` cannot be the zero address."
      },
      "balanceOf(address)": {
        "details": "See {IERC20-balanceOf}."
      },
      "decimals()": {
        "details": "Returns the number of decimals used to get its user representation. For example, if `decimals` equals `2`, a balance of `505` tokens should be displayed to a user as `5.05` (`505 / 10 ** 2`). Tokens usually opt for a value of 18, imitating the relationship between Ether and Wei. This is the value {ERC20} uses, unless this function is overridden; NOTE: This information is only used for _display_ purposes: it in no way affects any of the arithmetic of the contract, including {IERC20-balanceOf} and {IERC20-transfer}."
      },
      "decreaseAllowance(address,uint256)": {
        "details": "Atomically decreases the allowance granted to `spender` by the caller. This is an alternative to {approve} that can be used as a mitigation for problems described in {IERC20-approve}. Emits an {Approval} event indicating the updated allowance. Requirements: - `spender` cannot be the zero address. - `spender` must have allowance for the caller of at least `subtractedValue`."
      },
      "increaseAllowance(address,uint256)": {
        "details": "Atomically increases the allowance granted to `spender` by the caller. This is an alternative to {approve} that can be used as a mitigation for problems described in {IERC20-approve}. Emits an {Approval} event indicating the updated allowance. Requirements: - `spender` cannot be the zero address."
      },
      "name()": {
        "details": "Returns the name of the token."
      },
      "symbol()": {
        "details": "Returns the symbol of the token, usually a shorter version of the name."
      },
      "totalSupply()": {
        "details": "See {IERC20-totalSupply}."
      },
      "transfer(address,uint256)": {
        "details": "See {IERC20-transfer}. Requirements: - `recipient` cannot be the zero address. - the caller must have a balance of at least `amount`."
      },
      "transferFrom(address,address,uint256)": {
        "details": "See {IERC20-transferFrom}. Emits an {Approval} event indicating the updated allowance. This is not required by the EIP. See the note at the beginning of {ERC20}. Requirements: - `sender` and `recipient` cannot be the zero address. - `sender` must have a balance of at least `amount`. - the caller must have allowance for ``sender``'s tokens of at least `amount`."
      }
    },
    "version": 1
  },
  "userdoc": {
    "kind": "user",
    "methods": {},
    "version": 1
  },
  "storageLayout": {
    "storage": [
      {
        "astId": 1622,
        "contract": "contracts/bridgev2/Token.sol:Token2",
        "label": "_balances",
        "offset": 0,
        "slot": "0",
        "type": "t_mapping(t_address,t_uint256)"
      },
      {
        "astId": 1628,
        "contract": "contracts/bridgev2/Token.sol:Token2",
        "label": "_allowances",
        "offset": 0,
        "slot": "1",
        "type": "t_mapping(t_address,t_mapping(t_address,t_uint256))"
      },
      {
        "astId": 1630,
        "contract": "contracts/bridgev2/Token.sol:Token2",
        "label": "_totalSupply",
        "offset": 0,
        "slot": "2",
        "type": "t_uint256"
      },
      {
        "astId": 1632,
        "contract": "contracts/bridgev2/Token.sol:Token2",
        "label": "_name",
        "offset": 0,
        "slot": "3",
        "type": "t_string_storage"
      },
      {
        "astId": 1634,
        "contract": "contracts/bridgev2/Token.sol:Token2",
        "label": "_symbol",
        "offset": 0,
        "slot": "4",
        "type": "t_string_storage"
      },
      {
        "astId": 8908,
        "contract": "contracts/bridgev2/Token.sol:Token2",
        "label": "isMap",
        "offset": 0,
        "slot": "5",
        "type": "t_bool"
      }
    ],
    "types": {
      "t_address": {
        "encoding": "inplace",
        "label": "address",
        "numberOfBytes": "20"
      },
      "t_bool": {
        "encoding": "inplace",
        "label": "bool",
        "numberOfBytes": "1"
      },
      "t_mapping(t_address,t_mapping(t_address,t_uint256))": {
        "encoding": "mapping",
        "key": "t_address",
        "label": "mapping(address => mapping(address => uint256))",
        "numberOfBytes": "32",
        "value": "t_mapping(t_address,t_uint256)"
      },
      "t_mapping(t_address,t_uint256)": {
        "encoding": "mapping",
        "key": "t_address",
        "label": "mapping(address => uint256)",
        "numberOfBytes": "32",
        "value": "t_uint256"
      },
      "t_string_storage": {
        "encoding": "bytes",
        "label": "string",
        "numberOfBytes": "32"
      },
      "t_uint256": {
        "encoding": "inplace",
        "label": "uint256",
        "numberOfBytes": "32"
      }
    }
  }
}